{
  "_format": "hh-sol-artifact-1",
  "contractName": "CollateralManager",
  "sourceName": "contracts/CollateralManager.sol",
  "abi": [
    {
      "anonymous": false,
      "inputs": [
        {
          "indexed": false,
          "internalType": "uint256",
          "name": "id",
          "type": "uint256"
        },
        {
          "indexed": false,
          "internalType": "address",
          "name": "owner",
          "type": "address"
        },
        {
          "indexed": false,
          "internalType": "uint256",
          "name": "amount",
          "type": "uint256"
        }
      ],
      "name": "ETHLocked",
      "type": "event"
    },
    {
      "anonymous": false,
      "inputs": [
        {
          "indexed": false,
          "internalType": "uint256",
          "name": "id",
          "type": "uint256"
        },
        {
          "indexed": false,
          "internalType": "address",
          "name": "to",
          "type": "address"
        }
      ],
      "name": "ETHReleased",
      "type": "event"
    },
    {
      "anonymous": false,
      "inputs": [
        {
          "indexed": false,
          "internalType": "uint256",
          "name": "id",
          "type": "uint256"
        },
        {
          "indexed": false,
          "internalType": "address",
          "name": "to",
          "type": "address"
        }
      ],
      "name": "ETHSeized",
      "type": "event"
    },
    {
      "anonymous": false,
      "inputs": [
        {
          "indexed": false,
          "internalType": "uint256",
          "name": "id",
          "type": "uint256"
        },
        {
          "indexed": false,
          "internalType": "address",
          "name": "owner",
          "type": "address"
        },
        {
          "indexed": false,
          "internalType": "address",
          "name": "token",
          "type": "address"
        },
        {
          "indexed": false,
          "internalType": "uint256",
          "name": "tokenId",
          "type": "uint256"
        }
      ],
      "name": "NFTLocked",
      "type": "event"
    },
    {
      "anonymous": false,
      "inputs": [
        {
          "indexed": false,
          "internalType": "uint256",
          "name": "id",
          "type": "uint256"
        },
        {
          "indexed": false,
          "internalType": "address",
          "name": "to",
          "type": "address"
        }
      ],
      "name": "NFTReleased",
      "type": "event"
    },
    {
      "anonymous": false,
      "inputs": [
        {
          "indexed": false,
          "internalType": "uint256",
          "name": "id",
          "type": "uint256"
        },
        {
          "indexed": false,
          "internalType": "address",
          "name": "to",
          "type": "address"
        }
      ],
      "name": "NFTSeized",
      "type": "event"
    },
    {
      "inputs": [
        {
          "internalType": "uint256",
          "name": "",
          "type": "uint256"
        }
      ],
      "name": "ethCollaterals",
      "outputs": [
        {
          "internalType": "uint256",
          "name": "amount",
          "type": "uint256"
        },
        {
          "internalType": "address",
          "name": "owner",
          "type": "address"
        },
        {
          "internalType": "address",
          "name": "lender",
          "type": "address"
        },
        {
          "internalType": "bool",
          "name": "locked",
          "type": "bool"
        }
      ],
      "stateMutability": "view",
      "type": "function"
    },
    {
      "inputs": [
        {
          "internalType": "address",
          "name": "lender",
          "type": "address"
        }
      ],
      "name": "lockETH",
      "outputs": [],
      "stateMutability": "payable",
      "type": "function"
    },
    {
      "inputs": [
        {
          "internalType": "address",
          "name": "tokenAddress",
          "type": "address"
        },
        {
          "internalType": "uint256",
          "name": "tokenId",
          "type": "uint256"
        },
        {
          "internalType": "address",
          "name": "lender",
          "type": "address"
        }
      ],
      "name": "lockNFT",
      "outputs": [],
      "stateMutability": "nonpayable",
      "type": "function"
    },
    {
      "inputs": [],
      "name": "nextETHId",
      "outputs": [
        {
          "internalType": "uint256",
          "name": "",
          "type": "uint256"
        }
      ],
      "stateMutability": "view",
      "type": "function"
    },
    {
      "inputs": [],
      "name": "nextNFTId",
      "outputs": [
        {
          "internalType": "uint256",
          "name": "",
          "type": "uint256"
        }
      ],
      "stateMutability": "view",
      "type": "function"
    },
    {
      "inputs": [
        {
          "internalType": "uint256",
          "name": "",
          "type": "uint256"
        }
      ],
      "name": "nftCollaterals",
      "outputs": [
        {
          "internalType": "address",
          "name": "tokenAddress",
          "type": "address"
        },
        {
          "internalType": "uint256",
          "name": "tokenId",
          "type": "uint256"
        },
        {
          "internalType": "address",
          "name": "owner",
          "type": "address"
        },
        {
          "internalType": "address",
          "name": "lender",
          "type": "address"
        },
        {
          "internalType": "bool",
          "name": "locked",
          "type": "bool"
        }
      ],
      "stateMutability": "view",
      "type": "function"
    },
    {
      "inputs": [
        {
          "internalType": "uint256",
          "name": "id",
          "type": "uint256"
        }
      ],
      "name": "releaseETH",
      "outputs": [],
      "stateMutability": "nonpayable",
      "type": "function"
    },
    {
      "inputs": [
        {
          "internalType": "uint256",
          "name": "id",
          "type": "uint256"
        }
      ],
      "name": "releaseNFT",
      "outputs": [],
      "stateMutability": "nonpayable",
      "type": "function"
    },
    {
      "inputs": [
        {
          "internalType": "uint256",
          "name": "id",
          "type": "uint256"
        }
      ],
      "name": "seizeETH",
      "outputs": [],
      "stateMutability": "nonpayable",
      "type": "function"
    },
    {
      "inputs": [
        {
          "internalType": "uint256",
          "name": "id",
          "type": "uint256"
        }
      ],
      "name": "seizeNFT",
      "outputs": [],
      "stateMutability": "nonpayable",
      "type": "function"
    }
  ],
  "bytecode": "0x608060405234801561001057600080fd5b5061148b806100206000396000f3fe6080604052600436106100915760003560e01c8063bb2e36d711610059578063bb2e36d714610170578063c909adc014610199578063e0d5ab57146101c4578063e9296db7146101ed578063f9a075dc1461022d57610091565b80631e605bc2146100965780635e5ba8d7146100c157806380cf152c146100ea57806384a73e5314610113578063b8bd70881461012f575b600080fd5b3480156100a257600080fd5b506100ab610256565b6040516100b89190610f94565b60405180910390f35b3480156100cd57600080fd5b506100e860048036038101906100e39190610fe0565b61025c565b005b3480156100f657600080fd5b50610111600480360381019061010c9190610fe0565b61048f565b005b61012d6004803603810190610128919061106b565b610676565b005b34801561013b57600080fd5b5061015660048036038101906101519190610fe0565b6107ee565b6040516101679594939291906110c2565b60405180910390f35b34801561017c57600080fd5b5061019760048036038101906101929190610fe0565b610891565b005b3480156101a557600080fd5b506101ae610ac4565b6040516101bb9190610f94565b60405180910390f35b3480156101d057600080fd5b506101eb60048036038101906101e69190611115565b610aca565b005b3480156101f957600080fd5b50610214600480360381019061020f9190610fe0565b610d17565b6040516102249493929190611168565b60405180910390f35b34801561023957600080fd5b50610254600480360381019061024f9190610fe0565b610d94565b005b60025481565b60006001600083815260200190815260200160002090508060030160149054906101000a900460ff166102c4576040517f08c379a00000000000000000000000000000000000000000000000000000000081526004016102bb9061120a565b60405180910390fd5b8060030160009054906101000a900473ffffffffffffffffffffffffffffffffffffffff1673ffffffffffffffffffffffffffffffffffffffff163373ffffffffffffffffffffffffffffffffffffffff1614610356576040517f08c379a000000000000000000000000000000000000000000000000000000000815260040161034d90611276565b60405180910390fd5b60008160030160146101000a81548160ff0219169083151502179055508060000160009054906101000a900473ffffffffffffffffffffffffffffffffffffffff1673ffffffffffffffffffffffffffffffffffffffff166323b872dd308360020160009054906101000a900473ffffffffffffffffffffffffffffffffffffffff1684600101546040518463ffffffff1660e01b81526004016103fc93929190611296565b600060405180830381600087803b15801561041657600080fd5b505af115801561042a573d6000803e3d6000fd5b505050507fe5db67eb4a08037e976f0d7ed5cc52986dbf21d36f03bd33ed8cd2ddd793883c828260020160009054906101000a900473ffffffffffffffffffffffffffffffffffffffff166040516104839291906112cd565b60405180910390a15050565b60006003600083815260200190815260200160002090508060020160149054906101000a900460ff166104f7576040517f08c379a00000000000000000000000000000000000000000000000000000000081526004016104ee9061120a565b60405180910390fd5b8060020160009054906101000a900473ffffffffffffffffffffffffffffffffffffffff1673ffffffffffffffffffffffffffffffffffffffff163373ffffffffffffffffffffffffffffffffffffffff1614610589576040517f08c379a000000000000000000000000000000000000000000000000000000000815260040161058090611342565b60405180910390fd5b60008160020160146101000a81548160ff0219169083151502179055508060020160009054906101000a900473ffffffffffffffffffffffffffffffffffffffff1673ffffffffffffffffffffffffffffffffffffffff166108fc82600001549081150290604051600060405180830381858888f19350505050158015610614573d6000803e3d6000fd5b507f6bef9db4a6bdd74d37eabf8a448396de8d3305a8f1674b8ef031be8334805355828260020160009054906101000a900473ffffffffffffffffffffffffffffffffffffffff1660405161066a9291906112cd565b60405180910390a15050565b60006002600081548092919061068b90611391565b91905055905060405180608001604052803481526020013373ffffffffffffffffffffffffffffffffffffffff1681526020018373ffffffffffffffffffffffffffffffffffffffff16815260200160011515815250600360008381526020019081526020016000206000820151816000015560208201518160010160006101000a81548173ffffffffffffffffffffffffffffffffffffffff021916908373ffffffffffffffffffffffffffffffffffffffff16021790555060408201518160020160006101000a81548173ffffffffffffffffffffffffffffffffffffffff021916908373ffffffffffffffffffffffffffffffffffffffff16021790555060608201518160020160146101000a81548160ff0219169083151502179055509050507fdf8cf18c40362a8f7fe484be341f15edfacd02c732d7455334f4a18d4248ae8b8133346040516107e2939291906113d9565b60405180910390a15050565b60016020528060005260406000206000915090508060000160009054906101000a900473ffffffffffffffffffffffffffffffffffffffff16908060010154908060020160009054906101000a900473ffffffffffffffffffffffffffffffffffffffff16908060030160009054906101000a900473ffffffffffffffffffffffffffffffffffffffff16908060030160149054906101000a900460ff16905085565b60006001600083815260200190815260200160002090508060030160149054906101000a900460ff166108f9576040517f08c379a00000000000000000000000000000000000000000000000000000000081526004016108f09061120a565b60405180910390fd5b8060030160009054906101000a900473ffffffffffffffffffffffffffffffffffffffff1673ffffffffffffffffffffffffffffffffffffffff163373ffffffffffffffffffffffffffffffffffffffff161461098b576040517f08c379a000000000000000000000000000000000000000000000000000000000815260040161098290611342565b60405180910390fd5b60008160030160146101000a81548160ff0219169083151502179055508060000160009054906101000a900473ffffffffffffffffffffffffffffffffffffffff1673ffffffffffffffffffffffffffffffffffffffff166323b872dd308360030160009054906101000a900473ffffffffffffffffffffffffffffffffffffffff1684600101546040518463ffffffff1660e01b8152600401610a3193929190611296565b600060405180830381600087803b158015610a4b57600080fd5b505af1158015610a5f573d6000803e3d6000fd5b505050507feb98e5775f58b81cc154a830ce4a2f9f15fd043073cdc18fad48ea7083a5d38a828260030160009054906101000a900473ffffffffffffffffffffffffffffffffffffffff16604051610ab89291906112cd565b60405180910390a15050565b60005481565b8273ffffffffffffffffffffffffffffffffffffffff166323b872dd3330856040518463ffffffff1660e01b8152600401610b0793929190611296565b600060405180830381600087803b158015610b2157600080fd5b505af1158015610b35573d6000803e3d6000fd5b505050506000806000815480929190610b4d90611391565b9190505590506040518060a001604052808573ffffffffffffffffffffffffffffffffffffffff1681526020018481526020013373ffffffffffffffffffffffffffffffffffffffff1681526020018373ffffffffffffffffffffffffffffffffffffffff168152602001600115158152506001600083815260200190815260200160002060008201518160000160006101000a81548173ffffffffffffffffffffffffffffffffffffffff021916908373ffffffffffffffffffffffffffffffffffffffff1602179055506020820151816001015560408201518160020160006101000a81548173ffffffffffffffffffffffffffffffffffffffff021916908373ffffffffffffffffffffffffffffffffffffffff16021790555060608201518160030160006101000a81548173ffffffffffffffffffffffffffffffffffffffff021916908373ffffffffffffffffffffffffffffffffffffffff16021790555060808201518160030160146101000a81548160ff0219169083151502179055509050507f46868a5226a5978448f7d6f984870c12afcf34b6a85b7157ea88737ce35769d681338686604051610d099493929190611410565b60405180910390a150505050565b60036020528060005260406000206000915090508060000154908060010160009054906101000a900473ffffffffffffffffffffffffffffffffffffffff16908060020160009054906101000a900473ffffffffffffffffffffffffffffffffffffffff16908060020160149054906101000a900460ff16905084565b60006003600083815260200190815260200160002090508060020160149054906101000a900460ff16610dfc576040517f08c379a0000000000000000000000000000000000000000000000000000000008152600401610df39061120a565b60405180910390fd5b8060020160009054906101000a900473ffffffffffffffffffffffffffffffffffffffff1673ffffffffffffffffffffffffffffffffffffffff163373ffffffffffffffffffffffffffffffffffffffff1614610e8e576040517f08c379a0000000000000000000000000000000000000000000000000000000008152600401610e8590611276565b60405180910390fd5b60008160020160146101000a81548160ff0219169083151502179055508060010160009054906101000a900473ffffffffffffffffffffffffffffffffffffffff1673ffffffffffffffffffffffffffffffffffffffff166108fc82600001549081150290604051600060405180830381858888f19350505050158015610f19573d6000803e3d6000fd5b507fb16b04cadf7ed5f86fe3324bde99af9dcf2f2ee8939acbfd98f57e10d417ff1c828260010160009054906101000a900473ffffffffffffffffffffffffffffffffffffffff16604051610f6f9291906112cd565b60405180910390a15050565b6000819050919050565b610f8e81610f7b565b82525050565b6000602082019050610fa96000830184610f85565b92915050565b600080fd5b610fbd81610f7b565b8114610fc857600080fd5b50565b600081359050610fda81610fb4565b92915050565b600060208284031215610ff657610ff5610faf565b5b600061100484828501610fcb565b91505092915050565b600073ffffffffffffffffffffffffffffffffffffffff82169050919050565b60006110388261100d565b9050919050565b6110488161102d565b811461105357600080fd5b50565b6000813590506110658161103f565b92915050565b60006020828403121561108157611080610faf565b5b600061108f84828501611056565b91505092915050565b6110a18161102d565b82525050565b60008115159050919050565b6110bc816110a7565b82525050565b600060a0820190506110d76000830188611098565b6110e46020830187610f85565b6110f16040830186611098565b6110fe6060830185611098565b61110b60808301846110b3565b9695505050505050565b60008060006060848603121561112e5761112d610faf565b5b600061113c86828701611056565b935050602061114d86828701610fcb565b925050604061115e86828701611056565b9150509250925092565b600060808201905061117d6000830187610f85565b61118a6020830186611098565b6111976040830185611098565b6111a460608301846110b3565b95945050505050565b600082825260208201905092915050565b7f416c72656164792068616e646c65640000000000000000000000000000000000600082015250565b60006111f4600f836111ad565b91506111ff826111be565b602082019050919050565b60006020820190508181036000830152611223816111e7565b9050919050565b7f4f6e6c79206c656e6465722063616e2072656c65617365000000000000000000600082015250565b60006112606017836111ad565b915061126b8261122a565b602082019050919050565b6000602082019050818103600083015261128f81611253565b9050919050565b60006060820190506112ab6000830186611098565b6112b86020830185611098565b6112c56040830184610f85565b949350505050565b60006040820190506112e26000830185610f85565b6112ef6020830184611098565b9392505050565b7f4f6e6c79206c656e6465722063616e207365697a650000000000000000000000600082015250565b600061132c6015836111ad565b9150611337826112f6565b602082019050919050565b6000602082019050818103600083015261135b8161131f565b9050919050565b7f4e487b7100000000000000000000000000000000000000000000000000000000600052601160045260246000fd5b600061139c82610f7b565b91507fffffffffffffffffffffffffffffffffffffffffffffffffffffffffffffffff82036113ce576113cd611362565b5b600182019050919050565b60006060820190506113ee6000830186610f85565b6113fb6020830185611098565b6114086040830184610f85565b949350505050565b60006080820190506114256000830187610f85565b6114326020830186611098565b61143f6040830185611098565b61144c6060830184610f85565b9594505050505056fea2646970667358221220db73b17bde3772639cbd611e8585d1c7e2819a5b975a9d72bc000018b55dd3da64736f6c63430008140033",
  "linkReferences": {},
  "deployedLinkReferences": {}
}