{
  "_format": "hh-sol-artifact-1",
  "contractName": "LoanManager",
  "sourceName": "contracts/LoanManager.sol",
  "abi": [
    {
      "anonymous": false,
      "inputs": [
        {
          "indexed": false,
          "internalType": "uint256",
          "name": "loanId",
          "type": "uint256"
        },
        {
          "indexed": false,
          "internalType": "address",
          "name": "borrower",
          "type": "address"
        },
        {
          "indexed": false,
          "internalType": "uint256",
          "name": "amount",
          "type": "uint256"
        },
        {
          "indexed": false,
          "internalType": "uint256",
          "name": "collateralId",
          "type": "uint256"
        },
        {
          "indexed": false,
          "internalType": "uint256",
          "name": "dueDate",
          "type": "uint256"
        }
      ],
      "name": "LoanCreated",
      "type": "event"
    },
    {
      "anonymous": false,
      "inputs": [
        {
          "indexed": false,
          "internalType": "uint256",
          "name": "loanId",
          "type": "uint256"
        },
        {
          "indexed": false,
          "internalType": "address",
          "name": "lender",
          "type": "address"
        }
      ],
      "name": "LoanFunded",
      "type": "event"
    },
    {
      "anonymous": false,
      "inputs": [
        {
          "indexed": false,
          "internalType": "uint256",
          "name": "loanId",
          "type": "uint256"
        },
        {
          "indexed": false,
          "internalType": "uint256",
          "name": "amount",
          "type": "uint256"
        }
      ],
      "name": "LoanRepaid",
      "type": "event"
    },
    {
      "inputs": [
        {
          "internalType": "uint256",
          "name": "amount",
          "type": "uint256"
        },
        {
          "internalType": "uint256",
          "name": "collateralId",
          "type": "uint256"
        },
        {
          "internalType": "uint256",
          "name": "durationDays",
          "type": "uint256"
        }
      ],
      "name": "createLoan",
      "outputs": [],
      "stateMutability": "nonpayable",
      "type": "function"
    },
    {
      "inputs": [
        {
          "internalType": "uint256",
          "name": "loanId",
          "type": "uint256"
        }
      ],
      "name": "fundLoan",
      "outputs": [],
      "stateMutability": "payable",
      "type": "function"
    },
    {
      "inputs": [
        {
          "internalType": "uint256",
          "name": "loanId",
          "type": "uint256"
        }
      ],
      "name": "getLoan",
      "outputs": [
        {
          "components": [
            {
              "internalType": "uint256",
              "name": "id",
              "type": "uint256"
            },
            {
              "internalType": "address",
              "name": "borrower",
              "type": "address"
            },
            {
              "internalType": "address",
              "name": "lender",
              "type": "address"
            },
            {
              "internalType": "uint256",
              "name": "amount",
              "type": "uint256"
            },
            {
              "internalType": "uint256",
              "name": "collateralId",
              "type": "uint256"
            },
            {
              "internalType": "uint256",
              "name": "repaid",
              "type": "uint256"
            },
            {
              "internalType": "uint256",
              "name": "dueDate",
              "type": "uint256"
            },
            {
              "internalType": "enum LoanManager.LoanStatus",
              "name": "status",
              "type": "uint8"
            }
          ],
          "internalType": "struct LoanManager.Loan",
          "name": "",
          "type": "tuple"
        }
      ],
      "stateMutability": "view",
      "type": "function"
    },
    {
      "inputs": [
        {
          "internalType": "address",
          "name": "borrower",
          "type": "address"
        }
      ],
      "name": "getLoansByBorrower",
      "outputs": [
        {
          "internalType": "uint256[]",
          "name": "ids",
          "type": "uint256[]"
        },
        {
          "internalType": "uint256[]",
          "name": "amounts",
          "type": "uint256[]"
        },
        {
          "internalType": "uint256[]",
          "name": "repaidAmounts",
          "type": "uint256[]"
        },
        {
          "internalType": "address[]",
          "name": "lenders",
          "type": "address[]"
        },
        {
          "internalType": "uint256[]",
          "name": "dueDates",
          "type": "uint256[]"
        },
        {
          "internalType": "uint8[]",
          "name": "statuses",
          "type": "uint8[]"
        }
      ],
      "stateMutability": "view",
      "type": "function"
    },
    {
      "inputs": [
        {
          "internalType": "uint256",
          "name": "",
          "type": "uint256"
        }
      ],
      "name": "loans",
      "outputs": [
        {
          "internalType": "uint256",
          "name": "id",
          "type": "uint256"
        },
        {
          "internalType": "address",
          "name": "borrower",
          "type": "address"
        },
        {
          "internalType": "address",
          "name": "lender",
          "type": "address"
        },
        {
          "internalType": "uint256",
          "name": "amount",
          "type": "uint256"
        },
        {
          "internalType": "uint256",
          "name": "collateralId",
          "type": "uint256"
        },
        {
          "internalType": "uint256",
          "name": "repaid",
          "type": "uint256"
        },
        {
          "internalType": "uint256",
          "name": "dueDate",
          "type": "uint256"
        },
        {
          "internalType": "enum LoanManager.LoanStatus",
          "name": "status",
          "type": "uint8"
        }
      ],
      "stateMutability": "view",
      "type": "function"
    },
    {
      "inputs": [
        {
          "internalType": "address",
          "name": "",
          "type": "address"
        },
        {
          "internalType": "uint256",
          "name": "",
          "type": "uint256"
        }
      ],
      "name": "loansByBorrower",
      "outputs": [
        {
          "internalType": "uint256",
          "name": "",
          "type": "uint256"
        }
      ],
      "stateMutability": "view",
      "type": "function"
    },
    {
      "inputs": [],
      "name": "nextLoanId",
      "outputs": [
        {
          "internalType": "uint256",
          "name": "",
          "type": "uint256"
        }
      ],
      "stateMutability": "view",
      "type": "function"
    },
    {
      "inputs": [
        {
          "internalType": "uint256",
          "name": "loanId",
          "type": "uint256"
        }
      ],
      "name": "repayLoan",
      "outputs": [],
      "stateMutability": "payable",
      "type": "function"
    }
  ],
  "bytecode": "0x608060405234801561001057600080fd5b50611a11806100206000396000f3fe60806040526004361061007b5760003560e01c806387c514591161004e57806387c5145914610158578063904b513b14610183578063ab7b1c89146101ac578063e1ec3c68146101c85761007b565b80634b7f1e5a14610080578063504006ca146100bd578063846b909a146100fa57806386a2a43814610116575b600080fd5b34801561008c57600080fd5b506100a760048036038101906100a29190611004565b61020c565b6040516100b49190611053565b60405180910390f35b3480156100c957600080fd5b506100e460048036038101906100df919061106e565b61023d565b6040516100f191906111d2565b60405180910390f35b610114600480360381019061010f919061106e565b610384565b005b34801561012257600080fd5b5061013d600480360381019061013891906111ee565b610571565b60405161014f96959493929190611444565b60405180910390f35b34801561016457600080fd5b5061016d61097d565b60405161017a9190611053565b60405180910390f35b34801561018f57600080fd5b506101aa60048036038101906101a591906114cf565b610983565b005b6101c660048036038101906101c1919061106e565b610bfc565b005b3480156101d457600080fd5b506101ef60048036038101906101ea919061106e565b610e53565b604051610203989796959493929190611540565b60405180910390f35b6002602052816000526040600020818154811061022857600080fd5b90600052602060002001600091509150505481565b610245610ee8565b6001600083815260200190815260200160002060405180610100016040529081600082015481526020016001820160009054906101000a900473ffffffffffffffffffffffffffffffffffffffff1673ffffffffffffffffffffffffffffffffffffffff1673ffffffffffffffffffffffffffffffffffffffff1681526020016002820160009054906101000a900473ffffffffffffffffffffffffffffffffffffffff1673ffffffffffffffffffffffffffffffffffffffff1673ffffffffffffffffffffffffffffffffffffffff168152602001600382015481526020016004820154815260200160058201548152602001600682015481526020016007820160009054906101000a900460ff166002811115610367576103666110b9565b5b6002811115610379576103786110b9565b5b815250509050919050565b6000600160008381526020019081526020016000209050600060028111156103af576103ae6110b9565b5b8160070160009054906101000a900460ff1660028111156103d3576103d26110b9565b5b14610413576040517f08c379a000000000000000000000000000000000000000000000000000000000815260040161040a9061161b565b60405180910390fd5b80600301543414610459576040517f08c379a000000000000000000000000000000000000000000000000000000000815260040161045090611687565b60405180910390fd5b338160020160006101000a81548173ffffffffffffffffffffffffffffffffffffffff021916908373ffffffffffffffffffffffffffffffffffffffff16021790555060018160070160006101000a81548160ff021916908360028111156104c4576104c36110b9565b5b02179055508060010160009054906101000a900473ffffffffffffffffffffffffffffffffffffffff1673ffffffffffffffffffffffffffffffffffffffff166108fc349081150290604051600060405180830381858888f19350505050158015610533573d6000803e3d6000fd5b507f15feab5d3eb17171632762cf769709a315dd15f487a556c0dfb8a259c8f186cc82336040516105659291906116a7565b60405180910390a15050565b6060806060806060806000600260008973ffffffffffffffffffffffffffffffffffffffff1673ffffffffffffffffffffffffffffffffffffffff16815260200190815260200160002080548060200260200160405190810160405280929190818152602001828054801561060557602002820191906000526020600020905b8154815260200190600101908083116105f1575b50505050509050805167ffffffffffffffff811115610627576106266116d0565b5b6040519080825280602002602001820160405280156106555781602001602082028036833780820191505090505b509650805167ffffffffffffffff811115610673576106726116d0565b5b6040519080825280602002602001820160405280156106a15781602001602082028036833780820191505090505b509550805167ffffffffffffffff8111156106bf576106be6116d0565b5b6040519080825280602002602001820160405280156106ed5781602001602082028036833780820191505090505b509450805167ffffffffffffffff81111561070b5761070a6116d0565b5b6040519080825280602002602001820160405280156107395781602001602082028036833780820191505090505b509350805167ffffffffffffffff811115610757576107566116d0565b5b6040519080825280602002602001820160405280156107855781602001602082028036833780820191505090505b509250805167ffffffffffffffff8111156107a3576107a26116d0565b5b6040519080825280602002602001820160405280156107d15781602001602082028036833780820191505090505b50915060005b8151811015610972576000600160008484815181106107f9576107f86116ff565b5b6020026020010151815260200190815260200160002090508060000154898381518110610829576108286116ff565b5b602002602001018181525050806003015488838151811061084d5761084c6116ff565b5b6020026020010181815250508060050154878381518110610871576108706116ff565b5b6020026020010181815250508060020160009054906101000a900473ffffffffffffffffffffffffffffffffffffffff168683815181106108b5576108b46116ff565b5b602002602001019073ffffffffffffffffffffffffffffffffffffffff16908173ffffffffffffffffffffffffffffffffffffffff16815250508060060154858381518110610907576109066116ff565b5b6020026020010181815250508060070160009054906101000a900460ff166002811115610937576109366110b9565b5b84838151811061094a576109496116ff565b5b602002602001019060ff16908160ff168152505050808061096a9061175d565b9150506107d7565b505091939550919395565b60005481565b60405180610100016040528060005481526020013373ffffffffffffffffffffffffffffffffffffffff168152602001600073ffffffffffffffffffffffffffffffffffffffff1681526020018481526020018381526020016000815260200162015180836109f291906117a5565b426109fd91906117e7565b815260200160006002811115610a1657610a156110b9565b5b81525060016000805481526020019081526020016000206000820151816000015560208201518160010160006101000a81548173ffffffffffffffffffffffffffffffffffffffff021916908373ffffffffffffffffffffffffffffffffffffffff16021790555060408201518160020160006101000a81548173ffffffffffffffffffffffffffffffffffffffff021916908373ffffffffffffffffffffffffffffffffffffffff160217905550606082015181600301556080820151816004015560a0820151816005015560c0820151816006015560e08201518160070160006101000a81548160ff02191690836002811115610b1857610b176110b9565b5b0217905550905050600260003373ffffffffffffffffffffffffffffffffffffffff1673ffffffffffffffffffffffffffffffffffffffff16815260200190815260200160002060005490806001815401808255809150506001900390600052602060002001600090919091909150557fb2cca1719ad611d325136b9c9a4357f412d33694d93c60d4c1b6e922d524cf59600054338585600160008054815260200190815260200160002060060154604051610bd895949392919061181b565b60405180910390a1600080815480929190610bf29061175d565b9190505550505050565b60006001600083815260200190815260200160002090508060010160009054906101000a900473ffffffffffffffffffffffffffffffffffffffff1673ffffffffffffffffffffffffffffffffffffffff163373ffffffffffffffffffffffffffffffffffffffff1614610ca5576040517f08c379a0000000000000000000000000000000000000000000000000000000008152600401610c9c906118ba565b60405180910390fd5b60016002811115610cb957610cb86110b9565b5b8160070160009054906101000a900460ff166002811115610cdd57610cdc6110b9565b5b14610d1d576040517f08c379a0000000000000000000000000000000000000000000000000000000008152600401610d1490611926565b60405180910390fd5b80600301543414610d63576040517f08c379a0000000000000000000000000000000000000000000000000000000008152600401610d5a90611992565b60405180910390fd5b34816005016000828254610d7791906117e7565b9250508190555060028160070160006101000a81548160ff02191690836002811115610da657610da56110b9565b5b02179055508060020160009054906101000a900473ffffffffffffffffffffffffffffffffffffffff1673ffffffffffffffffffffffffffffffffffffffff166108fc349081150290604051600060405180830381858888f19350505050158015610e15573d6000803e3d6000fd5b507f040cee90ee4799897c30ca04e5feb6fa43dbba9b6d084b4b257cdafd84ba013e8234604051610e479291906119b2565b60405180910390a15050565b60016020528060005260406000206000915090508060000154908060010160009054906101000a900473ffffffffffffffffffffffffffffffffffffffff16908060020160009054906101000a900473ffffffffffffffffffffffffffffffffffffffff16908060030154908060040154908060050154908060060154908060070160009054906101000a900460ff16905088565b60405180610100016040528060008152602001600073ffffffffffffffffffffffffffffffffffffffff168152602001600073ffffffffffffffffffffffffffffffffffffffff1681526020016000815260200160008152602001600081526020016000815260200160006002811115610f6557610f646110b9565b5b81525090565b600080fd5b600073ffffffffffffffffffffffffffffffffffffffff82169050919050565b6000610f9b82610f70565b9050919050565b610fab81610f90565b8114610fb657600080fd5b50565b600081359050610fc881610fa2565b92915050565b6000819050919050565b610fe181610fce565b8114610fec57600080fd5b50565b600081359050610ffe81610fd8565b92915050565b6000806040838503121561101b5761101a610f6b565b5b600061102985828601610fb9565b925050602061103a85828601610fef565b9150509250929050565b61104d81610fce565b82525050565b60006020820190506110686000830184611044565b92915050565b60006020828403121561108457611083610f6b565b5b600061109284828501610fef565b91505092915050565b6110a481610fce565b82525050565b6110b381610f90565b82525050565b7f4e487b7100000000000000000000000000000000000000000000000000000000600052602160045260246000fd5b600381106110f9576110f86110b9565b5b50565b600081905061110a826110e8565b919050565b600061111a826110fc565b9050919050565b61112a8161110f565b82525050565b61010082016000820151611147600085018261109b565b50602082015161115a60208501826110aa565b50604082015161116d60408501826110aa565b506060820151611180606085018261109b565b506080820151611193608085018261109b565b5060a08201516111a660a085018261109b565b5060c08201516111b960c085018261109b565b5060e08201516111cc60e0850182611121565b50505050565b6000610100820190506111e86000830184611130565b92915050565b60006020828403121561120457611203610f6b565b5b600061121284828501610fb9565b91505092915050565b600081519050919050565b600082825260208201905092915050565b6000819050602082019050919050565b6000611253838361109b565b60208301905092915050565b6000602082019050919050565b60006112778261121b565b6112818185611226565b935061128c83611237565b8060005b838110156112bd5781516112a48882611247565b97506112af8361125f565b925050600181019050611290565b5085935050505092915050565b600081519050919050565b600082825260208201905092915050565b6000819050602082019050919050565b600061130283836110aa565b60208301905092915050565b6000602082019050919050565b6000611326826112ca565b61133081856112d5565b935061133b836112e6565b8060005b8381101561136c57815161135388826112f6565b975061135e8361130e565b92505060018101905061133f565b5085935050505092915050565b600081519050919050565b600082825260208201905092915050565b6000819050602082019050919050565b600060ff82169050919050565b6113bb816113a5565b82525050565b60006113cd83836113b2565b60208301905092915050565b6000602082019050919050565b60006113f182611379565b6113fb8185611384565b935061140683611395565b8060005b8381101561143757815161141e88826113c1565b9750611429836113d9565b92505060018101905061140a565b5085935050505092915050565b600060c082019050818103600083015261145e818961126c565b90508181036020830152611472818861126c565b90508181036040830152611486818761126c565b9050818103606083015261149a818661131b565b905081810360808301526114ae818561126c565b905081810360a08301526114c281846113e6565b9050979650505050505050565b6000806000606084860312156114e8576114e7610f6b565b5b60006114f686828701610fef565b935050602061150786828701610fef565b925050604061151886828701610fef565b9150509250925092565b61152b81610f90565b82525050565b61153a8161110f565b82525050565b600061010082019050611556600083018b611044565b611563602083018a611522565b6115706040830189611522565b61157d6060830188611044565b61158a6080830187611044565b61159760a0830186611044565b6115a460c0830185611044565b6115b160e0830184611531565b9998505050505050505050565b600082825260208201905092915050565b7f4c6f616e206e6f7420617661696c61626c6520746f2066756e64000000000000600082015250565b6000611605601a836115be565b9150611610826115cf565b602082019050919050565b60006020820190508181036000830152611634816115f8565b9050919050565b7f496e636f727265637420616d6f756e7400000000000000000000000000000000600082015250565b60006116716010836115be565b915061167c8261163b565b602082019050919050565b600060208201905081810360008301526116a081611664565b9050919050565b60006040820190506116bc6000830185611044565b6116c96020830184611522565b9392505050565b7f4e487b7100000000000000000000000000000000000000000000000000000000600052604160045260246000fd5b7f4e487b7100000000000000000000000000000000000000000000000000000000600052603260045260246000fd5b7f4e487b7100000000000000000000000000000000000000000000000000000000600052601160045260246000fd5b600061176882610fce565b91507fffffffffffffffffffffffffffffffffffffffffffffffffffffffffffffffff820361179a5761179961172e565b5b600182019050919050565b60006117b082610fce565b91506117bb83610fce565b92508282026117c981610fce565b915082820484148315176117e0576117df61172e565b5b5092915050565b60006117f282610fce565b91506117fd83610fce565b92508282019050808211156118155761181461172e565b5b92915050565b600060a0820190506118306000830188611044565b61183d6020830187611522565b61184a6040830186611044565b6118576060830185611044565b6118646080830184611044565b9695505050505050565b7f4f6e6c7920626f72726f7765722063616e207265706179000000000000000000600082015250565b60006118a46017836115be565b91506118af8261186e565b602082019050919050565b600060208201905081810360008301526118d381611897565b9050919050565b7f4c6f616e206d7573742062652066756e64656400000000000000000000000000600082015250565b60006119106013836115be565b915061191b826118da565b602082019050919050565b6000602082019050818103600083015261193f81611903565b9050919050565b7f496e636f72726563742072657061796d656e7420616d6f756e74000000000000600082015250565b600061197c601a836115be565b915061198782611946565b602082019050919050565b600060208201905081810360008301526119ab8161196f565b9050919050565b60006040820190506119c76000830185611044565b6119d46020830184611044565b939250505056fea26469706673582212202a0089b3bb6b88f7ddc1364713676b3b7b1fd95f40e9c33db49dbb8cd10ffc1964736f6c63430008140033",
  "linkReferences": {},
  "deployedLinkReferences": {}
}